:100000000C9408060C9425060C9425060C942506E1
:100010000C9425060C9425060C9425060C942506B4
:100020000C9425060C9425060C9425060C942506A4
:100030000C9425060C9425060C9425060C94250694
:100040000C9425060C9425060C94EF130C9426149E
:100050000C9425060C9425060C9425060C94250674
:100060000C9425060C9425060C9425060C94250664
:100070000C9425060C9425060C9462140C94991487
:100080000C9425060C9425060C9425062A2A2A2A67
:100090002A2A2A2A2A2A2A2A2A2A2A2A2A2A2A2AC0
:1000A0002A2A2A2A2A2A2A2A2A2A2A2A2A204D20A1
:1000B00045204E205520202A2A2A2A2A2A2A2A2A5E
:1000C0002A2A2A2A2A2A2A2A2A2A2A2A2A2A2A2A90
:1000D0002A2A2A2A2A2A2A2A0D0A0D0A416C6C2069
:1000E00075707065726361736520616E6420736FF3
:1000F0006D65206C6F7765726361736520636F6DEA
:100100006D616E647320726571756972652061201E
:10011000666F6C6C6F77696E6720696E7465676572
:100120007220706172616D6574657220690D0A6577
:100130002E672E20523120746F2072657365740D06
:100140000A466F7220636F6E76656E69656E6365D1
:100150002052522C2041412C2054542C2026204245
:100160004220617265206571756976616C656E7497
:1001700020746F2052312C2041312C2054312C20FE
:100180002620423120726573706563746976656CF0
:10019000792E0D0A4361726420636F6D6D616E6428
:1001A000732067697665206120726573706F6E7366
:1001B0006520666F72207468652073656C65637472
:1001C0006564206361726420616E64206368616E9F
:1001D0006E656C20756E6C657373206F74686572E4
:1001E0007769736520696E646963617465642E0D57
:1001F0000A0D0A2A2A2A2A2A2A2A2A2A2A2A2A2ABC
:100200002A2A2A2A2A2A2A2A2A2A2A20412F44202C
:100210004361726420436F6E74726F6C202A2A2AC5
:100220002A2A2A2A2A2A2A2A2A2A2A2A2A2A2A2A2E
:100230002A2A2A2A2A0D0A0D0A27526927203A203B
:100240003C2069203D2030202D2031203E203A20C6
:1002500031203D207265736574202620686F6C64C0
:100260002072696E6720706F696E746572732061A9
:1002700074206C6F636174696F6E20307830303039
:10028000300D0A274E6927203A203C2069203D2066
:1002900031202D2046203E203A2073656C65637422
:1002A0002063617264206E756D6265720D0A27436A
:1002B0006927203A203C2069203D2031202D203321
:1002C000203E203A2073656C656374206368616E1C
:1002D0006E656C206E756D6265720D0A2744692724
:1002E000203A203C2069203D2031202D2033203E23
:1002F000203A2073656E6420686561646572202B06
:1003000020386B2076616C75657320666F72206390
:10031000617264204E2C206368616E6E656C20698A
:100320000D0A2020202A2A204E4F5445202A2A2018
:100330007468697320636F6D6D616E642844692908
:1003400020616C736F2073657473204272696566F7
:10035000206D6F64652842302920262073656C6506
:10036000637473204368616E6E656C284369290D60
:100370000A274F6927203A203C2069203D20312060
:100380002D2033203E203A20676574207468652054
:100390006C617465737420313520626974207661F4
:1003A0006C75652066726F6D206368616E6E656C3A
:1003B0002069206173206F6374616C0D0A27566990
:1003C00027203A203C2069203D2031202D20332059
:1003D0003E203A2067657420746865206C617465FE
:1003E000737420636F6E76657273696F6E206672C8
:1003F0006F6D206368616E6E656C2069206173208B
:1004000042434420766F6C746167650D0A27662746
:10041000203A207472616E736D697420746865206F
:100420006C61746573742066756C6C207363616CA9
:100430006520646174612072616E67652028766F43
:100440006C7473292028666F72206368616E6E6514
:100450006C204E694369290D0A276727203A2074CA
:1004600072616E736D697420746865206C61746567
:100470007374206461746120636F75706C696E675A
:10048000202841206F722044292028666F72206343
:1004900068616E6E656C204E694369290D0A0D0A0C
:1004A0002A2A2A2A2A2A2A2A2A2A2A2A2A2A2A2AAC
:1004B0002A2A2A2A2A2A2A2A2A20412F442043612A
:1004C000726420537461747573202A2A2A2A2A2A96
:1004D0002A2A2A2A2A2A2A2A2A2A2A2A2A2A2A2A7C
:1004E0002A2A2A0D0A0D0A27786927203A203C205B
:1004F00069203D2031202D2046203E203A2063688F
:1005000065636B206578697374656E6365206F66DB
:100510002063617264203A2031203D206170706553
:1005200061727320746F2065786973742C20302099
:100530003D206E6F742070726573656E740D0A27AE
:10054000616927203A203C2069203D2031202D2060
:1005500046203E203A206765742073616D706C6997
:100560006E6720737461747573203A2031203D20CA
:100570007374696C6C2073616D706C696E672C208C
:1005800030203D20686F6C640D0A277227203A20C6
:100590006765742072696E672D6275666665722084
:1005A000706F696E74657220746F206F6C64657310
:1005B0007420646174612061646472657373203AAD
:1005C0002048484848202868657861646563696DFB
:1005D000616C29200D0A277427203A206765742052
:1005E0006361726427732074696D6562617365204D
:1005F00073656C656374696F6E203A20312D33200A
:100600006F722030203D2074696D656261736520D2
:10061000312061742078340D0A0D0A2A2A2A2A2AE8
:100620002A2A2A2A2A2A2A2A2A2A2A2A2A2A2A2A2A
:100630002A205472696767657220556E6974204379
:100640006F6E74726F6C202A2A2A2A2A2A2A2A2A72
:100650002A2A2A2A2A2A2A2A2A2A2A2A2A0D0A0D54
:100660000A27416927203A203C2069203D2030207C
:100670002D2031203E203A2031203D2061726D2016
:10068000616C6C207472696767657220756E69743D
:1006900073202830203D206E6F2065666665637488
:1006A000290D0A27546927203A203C2069203D2043
:1006B00030202D2031203E203A2031203D20636122
:1006C0007573657320612074726967676572696EFE
:1006D00067206F662044617461626F782028302043
:1006E0003D206E6F20656666656374290D0A0D0AEC
:1006F0002A2A2A2A2A2A2A2A2A2A2A2A2A2A2A2A5A
:100700002A2A2A2A2A2A2054696D652042617365A3
:1007100020537461747573202A2A2A2A2A2A2A2AC5
:100720002A2A2A2A2A2A2A2A2A2A2A2A2A0D0A0D83
:100730000A27646927203A203C2069203D20312087
:100740002D2033203E20676574207468756D6277B4
:100750006865656C2073656C656374696F6E203ABB
:1007600020646439322028646563696D616C290DE9
:100770000A27626927203A203C2069203D20312049
:100780002D2033203E206765742062756666657291
:100790002073697A652073656C656374696F6E2078
:1007A0003A20322C20342C20386B622C20413D41E1
:1007B00063746976650D0A27706927203A203C200A
:1007C00069203D2031202D2033203E206765742094
:1007D00073616D706C6520706572696F64203A207A
:1007E00030312D35306D6963726F7365636F6E6480
:1007F000730D0A276D6927203A203C2069203D208F
:1008000031202D2033203E20676574206D756C7477
:1008100069706C696572203A2031203D2078313052
:10082000302C2030203D2078310D0A277569272093
:100830003A203C2069203D2031202D2033203E20CD
:100840006765742074696D656261736520756E6992
:100850007420747269676765722023203A202831FA
:100860002D33290D0A0D0A2A2A2A2A2A2A2A2A2A57
:100870002A2A2A2A2A2A2A2A2A2A2A2A2A20547270
:10088000696767657220556E697420537461747569
:1008900073202A2A2A2A2A2A2A2A2A2A2A2A2A2A79
:1008A0002A2A2A2A2A2A2A2A2A0D0A0D0A276369AD
:1008B00027203A203C2069203D2031202D20332064
:1008C0003E20676574207472696767657220756E73
:1008D000697420636F75706C696E673A2044203DBF
:1008E0002031203D2064632C2041203D2030203DDC
:1008F0002061630D0A27736927203A203C20692074
:100900003D2031202D2033203E2067657420736CFC
:100910006F70652073657474696E673A2052203D6C
:100920002031203D20726973696E672C2046203D7E
:100930002030203D2066616C6C696E670D0A276B64
:100940006927203A203C2069203D2031202D20338A
:10095000203E206765742074726967676572206C39
:100960006576656C2070657263656E74203A202B25
:100970002F2D39390D0A274C6927203A203C206950
:10098000203D2031202D2033203E206765742074C7
:10099000726967676572206C6576656C2070657238
:1009A00063656E74203A206F6374616C0D0A277A58
:1009B0006927203A203C2069203D2030202D20311D
:1009C000203E2064657465726D696E65207468727E
:1009D0006573686F6C642D7265706F7274696E6791
:1009E000206265686176696F75723A20313D656E87
:1009F00061626C652C20303D64697361626C650DC9
:100A00000A0D0A2A2A2A2A2A2A2A2A2A2A2A2A2AA3
:100A10002A2A2A2A2A2A2A2A2A2A2A2A2A2A2A2A36
:100A20002053797374656D2046756E6374696F6EBB
:100A300073202A2A2A2A2A2A2A2A2A2A2A2A2A2AD7
:100A40002A2A2A2A2A2A2A2A2A2A2A2A2A2A2A0D23
:100A50000A0D0A277627203A2067657420706F7286
:100A60007420616E6420736F66747761726520769E
:100A7000657273696F6E204E6F2E0D0A27792720DD
:100A80003A20636865636B206578697374656E638B
:100A900065206F6620626F783A2031203D206170BA
:100AA000706561727320746F206265207072657367
:100AB000656E742C2030203D206E6F74207072653E
:100AC00073656E740D0A276927203A2067657420C4
:100AD00070726F6772616D6D656420692F6F20623F
:100AE00061736520616464726573733A206465663E
:100AF00061756C743D3078303332300D0A274927E8
:100B0000203A203C2069203D20787878203E2070D3
:100B100065726D616E656E746C79206368616E6775
:100B2000652068657820692F6F2062617365206198
:100B30006464726573732E20652E672049333230EA
:100B40000D0A27556927203A203C2069203D203195
:100B5000202D2036203E207065726D616E656E74AA
:100B60006C79206368616E6765205253323332209E
:100B70006261756420726174650D0A202020202056
:100B80002020313A3234303020323A34383030207C
:100B9000333A3936303020343A3338343030203537
:100BA0003A353736303020363A3131353230300D43
:100BB0000A27426927203A203C2069203D20302026
:100BC0002D2031203E20736574206F75747075740C
:100BD000206D6F6465203A2030203D206272696587
:100BE000662C2031203D20766572626F7365200D82
:100BF0000A276827203A207072696E742074686929
:100C0000732068656C70206D656E750D0A0D0A00A5
:100C100011241FBECFEFD0E1DEBFCDBF14E0A0E0B6
:100C2000B1E0EAE7F2E300E00BBF02C007900D92EB
:100C3000A033B107D9F715E0A0E3B4E001C01D92DD
:100C4000AD33B107E1F70C941C120C940000CF9364
:100C5000DF93CDB7DEB727970FB6F894DEBF0FBE90
:100C6000CDBF8091300499279C013695322F2227E1
:100C70003795279580910101992782959295907FCC
:100C80009827807F9827922F982B80910001892B9D
:100C9000898380E090E09B838A83AA81BB810E9444
:100CA0002719BB83AA83CF019F838E838E819F8167
:100CB0009D838C838C819D81019769810E947D1821
:100CC00027960FB6F894DEBF0FBECDBFDF91CF9150
:100CD0000895CF93DF93CDB7DEB70E94F317009747
:100CE00021F081E08093300402C0109230040E9411
:100CF000270680917903882309F183E091E00E941F
:100D0000A217809100010E94401782E191E00E94A9
:100D1000A217809101010E94401786E291E00E9493
:100D2000A21780913004882329F088E491E00E9482
:100D3000A21704C083E591E00E94A217DF91CF9132
:100D40000895CF93DF93CDB7DEB70E94F31780935A
:100D500001010E94270680917903882309F183E02D
:100D600091E00E94A217809100010E94401782E149
:100D700091E00E94A217809101010E94401786E233
:100D800091E00E94A21780913004882329F088E422
:100D900091E00E94A21704C083E591E00E94A2178F
:100DA000DF91CF910895CF93DF93CDB7DEB70E9447
:100DB000F317809300010E9427068091790388230E
:100DC00009F183E091E00E94A217809100010E9446
:100DD000401782E191E00E94A217809101010E94D8
:100DE000401786E291E00E94A21780913004882388
:100DF00029F088E491E00E94A21704C083E591E005
:100E00000E94A217DF91CF910895CF93DF93CDB7C2
:100E1000DEB722970FB6F894DEBF0FBECDBF9A8320
:100E2000898389818F73805D0E94A41689819A814C
:100E30000024880F991F001C880F991F001C892F00
:100E4000902D8F73805D0E94A41622960FB6F894A1
:100E5000DEBF0FBECDBFDF91CF910895CF93DF935B
:100E6000CDB7DEB724970FB6F894DEBF0FBECDBF67
:100E70009A83898389819A8181709070009741F06B
:100E800089819A819695879590689C838B8306C00B
:100E900089819A81969587959C838B838B819C8190
:100EA00024960FB6F894DEBF0FBECDBFDF91CF9171
:100EB0000895CF93DF93CDB7DEB72C970FB6F89494
:100EC000DEBF0FBECDBF809100010E94B00A882313
:100ED00029F086E691E00E94A217E1C00E94270651
:100EE00080917903882309F183E091E00E94A217A1
:100EF000809100010E94401782E191E00E94A217B8
:100F0000809101010E94401786E291E00E94A217A1
:100F100080913004882329F088E491E00E94A21790
:100F200004C083E591E00E94A217809100010E9415
:100F30004017809101010E9440170E94200B898375
:100F400089810E94B90D89810E94370E89810E9492
:100F5000B10C89810E94F00C89810E945C0D8A830A
:100F60008A810E94830F8A810E9469100E94F10980
:100F70000E94A5090E94560B9C838B831C861B86AE
:100F80008B819C819A87898789859A8520E2803028
:100F90009207D0F529853A85C901820F931F0E94D7
:100FA000B4188F8329853A85C901820F931F019652
:100FB0000E94B41888878F8182958F70282F3327DD
:100FC0008885992782959295907F9827807F98278A
:100FD000822B932B9E838D838D819E810E9405079A
:100FE0008B859C850E942E079C878B872B853C8553
:100FF0008D819E81820F931F9C878B8789859A851F
:1010000001969A878987C0CF1A8619862B813C81E1
:1010100089859A8582179307D0F529853A85C90174
:10102000820F931F0E94B4188F8329853A85C901C6
:10103000820F931F01960E94B41888878F81829532
:101040008F70282F33278885992782959295907FD6
:101050009827807F9827822B932B9E838D838D8169
:101060009E810E9405078B859C850E942E079C8788
:101070008B872B853C858D819E81820F931F9C875A
:101080008B8789859A8501969A878987BFCF8B85BB
:101090009C850E9464178DE691E00E94A2172C9611
:1010A0000FB6F894DEBF0FBECDBFDF91CF9108958C
:1010B000CF93DF93CDB7DEB728970FB6F894DEBF96
:1010C0000FBECDBF0E94560B9A83898389819A8176
:1010D000009709F005C08FEF9FE39C838B8308C0C6
:1010E00029813A81C901820F931F01979C838B83C9
:1010F0008B819C810E94B4188D838D819927982FB4
:10110000882798878F838B819C8101970E94B418D0
:101110008E838E81282F33278F819885822B932B66
:1011200098878F838F81988528960FB6F894DEBFB5
:101130000FBECDBFDF91CF910895CF93DF93CDB791
:10114000DEB723970FB6F894DEBF0FBECDBF0E9467
:10115000A1060E9458089A83898385E08B838B813E
:101160008823B1F09B8183E0989FC00111249C01EA
:101170002250304089819A8102C0969587952A95A0
:10118000E2F787700E9440178B8181508B83E7CFF5
:1011900023960FB6F894DEBF0FBECDBFDF91CF917F
:1011A0000895CF93DF93CDB7DEB726970FB6F894A7
:1011B000DEBF0FBECDBF0E94A1060E9458089A83D1
:1011C000898389819A81929582958F7089279F70F2
:1011D00089279C838B838B819C8128E080309207B8
:1011E00050F08BE20E94A4168B819C818050984025
:1011F0009C838B830BC08DE20E94A41680E098E054
:101200002B813C81821B930B9C838B8389819A81E8
:1012100096958795877090709A8389832B813C81FE
:10122000C901880F991F82959295907F9827807F9A
:101230009827821B930B2B813C81369527953695F9
:101240002795820F931F96958795929582958F701B
:1012500089279F7089279C838B8349815A815E836C
:101260004D838D819E818330910509F441C04D816C
:101270005E814430510558F48D819E818130910505
:10128000C1F04D815E814230510510F50DC08D8158
:101290009E8184309105C1F18D819E8106978230B7
:1012A000910508F045C03EC080E69AEE9C838B8392
:1012B0003FC08B819C8129E130E0829FA001839F08
:1012C000500D929F500D1124CA019C838B8330C016
:1012D0002B813C81C901880F991F880F991F880FA6
:1012E000991F820F931F820F931F9C838B8320C0B3
:1012F0002B813C81C901880F991F880F991F820F8C
:10130000931F9C838B8314C02B813C81C901880F60
:10131000991F880F991F820F931F969587959C831D
:101320008B8306C08B819C81969587959C838B834C
:101330008B819C810E94F01626960FB6F894DEBF32
:101340000FBECDBFDF91CF910895CF93DF93CDB77F
:10135000DEB7A2970FB6F894DEBF0FBECDBF0E94D6
:10136000580896958795877090709A83898380E155
:10137000DE011396E2E7F1E001900D928A95E1F724
:1013800080E1DE015396E2E8F1E001900D928A954A
:10139000E1F729813A81C901280F391FCE01019651
:1013A000820F931FFC01329680810E9440178EE2CB
:1013B0000E94A41629813A81C901280F391FCE0144
:1013C0000196820F931FFC01729680810E94401744
:1013D000A2960FB6F894DEBF0FBECDBFDF91CF91BE
:1013E0000895CF93DF93CDB7DEB722970FB6F89469
:1013F000DEBF0FBECDBF0E945808817090709A83E7
:10140000898389819A81009721F084E40E94A4163F
:1014100003C081E40E94A41680917903882321F0FF
:1014200082E991E00E94A21722960FB6F894DEBFDF
:101430000FBECDBFDF91CF910895CF93DF93CDB78E
:10144000DEB727970FB6F894DEBF0FBECDBF8983F6
:1014500080E090E09B838A83AA81BB810E94271948
:10146000BB83AA83CF019F838E838E819F819D83BF
:101470008C834C815D818981282F3327C901820F9C
:10148000931F840F951F01960E944818992727964D
:101490000FB6F894DEBF0FBECDBFDF91CF91089598
:1014A000CF93DF93CDB7DEB727970FB6F894DEBFA3
:1014B0000FBECDBF898380E090E09B838A83AA81A1
:1014C000BB810E942719BB83AA83CF019F838E8390
:1014D0008E819F819D838C834C815D818981282FA2
:1014E0003327C901820F931F840F951F0E9448184C
:1014F000992727960FB6F894DEBF0FBECDBFDF91B8
:10150000CF910895CF93DF93CDB7DEB725970FB670
:10151000F894DEBF0FBECDBF89831B8289810E94F4
:101520001D0A8F3F39F489810E94500A8F3F11F4C0
:1015300081E08B839B819A831D821C828A81882310
:1015400021F481E090E09D838C838C819D812596A0
:101550000FB6F894DEBF0FBECDBFDF91CF910895D7
:10156000CF93DF93CDB7DEB722970FB6F894DEBFE7
:101570000FBECDBF898389810E941D0A8A838A811B
:10158000881F8827881F992722960FB6F894DEBFF8
:101590000FBECDBFDF91CF910895CF93DF93CDB72D
:1015A000DEB722970FB6F894DEBF0FBECDBF19820B
:1015B00081E08A838A81883080F48A810E94820A4D
:1015C000882339F08A810E94B00A882311F081E0D3
:1015D00089838A818F5F8A83EDCF898199272296BB
:1015E0000FB6F894DEBF0FBECDBFDF91CF91089547
:1015F000CF93DF93CDB7DEB721970FB6F894DEBF58
:101600000FBECDBF898380917903882359F083E091
:1016100091E00E94A21789810E94401782EA91E01E
:101620000E94A21789810E94B00A0E944017219649
:101630000FB6F894DEBF0FBECDBFDF91CF910895F6
:10164000CF93DF93CDB7DEB723970FB6F894DEBF05
:101650000FBECDBF809100010E941D0A8983898140
:101660008295869587709927837090709B838A8373
:1016700080917903882361F083E091E00E94A217B2
:10168000809100010E9440178FEA91E00E94A2170A
:101690008A810E9440178A81992723960FB6F89471
:1016A000DEBF0FBECDBFDF91CF910895CF93DF9303
:1016B000CDB7DEB723970FB6F894DEBF0FBECDBF10
:1016C000809100010E941D0A8B838B8199278F7165
:1016D0009070982F88279A838983809100010E94B7
:1016E000500A8B838B81282F332789819A81822B03
:1016F000932B9A83898389819A8123960FB6F894D4
:10170000DEBF0FBECDBFDF91CF910895CF93DF93A2
:10171000CDB7DEB780917903882361F083E091E053
:101720000E94A217809100010E94401783EC91E073
:101730000E94A2170E94560B0E946417DF91CF915E
:101740000895CF93DF93CDB7DEB727970FB6F89400
:10175000DEBF0FBECDBF898382E090E09B838A838A
:10176000AA81BB810E942719BB83AA83CF019F83D3
:101770008E838E819F819D838C838C819D816981E5
:101780000E947D1827960FB6F894DEBF0FBECDBF1E
:10179000DF91CF910895CF93DF93CDB7DEB70E944D
:1017A000F317009759F080E20E94A10B8091790312
:1017B000882321F089ED91E00E94A217DF91CF915B
:1017C0000895CF93DF93CDB7DEB70E94F31700974C
:1017D00059F080E10E94A10B80917903882321F0C8
:1017E00082EF91E00E94A217DF91CF910895CF93ED
:1017F000DF93CDB7DEB727970FB6F894DEBF0FBEE5
:10180000CDBF89838981882311F481E0898389810F
:10181000843010F083E0898382E090E09B838A83A8
:10182000AA81BB810E942719BB83AA83CF019F8312
:101830008E838E819F819D838C834C815D81898184
:10184000282F3327C901820F931F840F951F0196FC
:101850000E944818992727960FB6F894DEBF0FBE4E
:10186000CDBFDF91CF910895CF93DF93CDB7DEB792
:1018700027970FB6F894DEBF0FBECDBF898389814D
:10188000882311F481E089838981843010F083E01A
:10189000898382E090E09B838A83AA81BB810E9436
:1018A0002719BB83AA83CF019F838E838E819F815B
:1018B0009D838C834C815D818981282F3327C901C9
:1018C000820F931F840F951F0E944818992727960F
:1018D0000FB6F894DEBF0FBECDBFDF91CF91089554
:1018E000CF93DF93CDB7DEB724970FB6F894DEBF62
:1018F0000FBECDBF1A8281E00E94F70B8F3FD9F453
:1019000081E00E94340C8F3FB1F482E00E94F70B1B
:101910008F3F89F482E00E94340C8F3F61F483E0B2
:101920000E94F70B8F3F39F483E00E94340C8F3F05
:1019300011F481E08A839A8199831C821B828981B8
:10194000882321F481E090E09C838B838B819C81B0
:1019500024960FB6F894DEBF0FBECDBFDF91CF91B6
:101960000895CF93DF93CDB7DEB722970FB6F894E3
:10197000DEBF0FBECDBF89838981882311F481E04A
:1019800089838981843010F083E0898389810E9472
:10199000F70B8A8380917903882359F08FE092E0D6
:1019A0000E94A21789810E9440178DE192E00E9457
:1019B000A2178A8182958F7087700E9440178A8152
:1019C0008F700E94401786E392E00E94A217229631
:1019D0000FB6F894DEBF0FBECDBFDF91CF91089553
:1019E000CF93DF93CDB7DEB724970FB6F894DEBF61
:1019F0000FBECDBF89838981882311F481E089835B
:101A00008981843010F083E0898389810E94340CBD
:101A10008A8380917903882359F089E392E00E94B8
:101A2000A21789810E94401789E492E00E94A217C0
:101A30008A818295869586958370282F33273C83EB
:101A40002B838B819C8181309105D1F02B813C814E
:101A5000223031052CF48B819C81009761F01FC0EE
:101A60002B813C812230310581F08B819C81833038
:101A7000910581F014C08AE592E00E94A21713C07C
:101A80008CE592E00E94A2170EC08EE592E00E94C3
:101A9000A21709C080E692E00E94A21704C082E665
:101AA00092E00E94A21724960FB6F894DEBF0FBEF4
:101AB000CDBFDF91CF910895CF93DF93CDB7DEB740
:101AC00025970FB6F894DEBF0FBECDBF89838981FD
:101AD000882311F481E089838981843010F083E0C8
:101AE000898389810E94340C8B83809179038823B8
:101AF00059F089E392E00E94A21789810E94401761
:101B000084E692E00E94A2178B8182958F709927BC
:101B1000837090709D838C838C819D818130910531
:101B200099F08C819D81823091052CF48C819D816E
:101B3000009739F00FC08C819D818330910539F079
:101B400009C081E08A8307C082E08A8304C083E001
:101B50008A8301C01A828A810E9440178A8199274C
:101B600025960FB6F894DEBF0FBECDBFDF91CF91A3
:101B70000895CF93DF93CDB7DEB724970FB6F894CF
:101B8000DEBF0FBECDBF89838981882311F481E038
:101B900089838981843010F083E0898389810E9460
:101BA000340C8A8380917903882359F08FE092E086
:101BB0000E94A21789810E9440178CE792E00E9440
:101BC000A2178A819927877090709C838B838B8161
:101BD0009C818330910551F18B819C8184309105EA
:101BE0005CF48B819C8181309105B1F08B819C816B
:101BF00082309105B1F02EC08B819C81853091059A
:101C0000F9F08B819C8185309105ACF08B819C81B2
:101C100086309105D1F01EC086E992E00E94A2179D
:101C20001DC089E992E00E94A21718C08CE992E0D9
:101C30000E94A21713C08FE992E00E94A2170EC063
:101C400082EA92E00E94A21709C085EA92E00E940F
:101C5000A21704C088EA92E00E94A21724960FB649
:101C6000F894DEBF0FBECDBFDF91CF910895CF9323
:101C7000DF93CDB7DEB724970FB6F894DEBF0FBE63
:101C8000CDBF89838981882311F481E0898389818B
:101C9000843010F083E0898389810E94340C8A8328
:101CA00080917903882359F08FE092E00E94A21777
:101CB00089810E9440178BEA92E00E94A2178A81D4
:101CC0008695869586959927817090709C838B83E5
:101CD0008B819C81009731F08B819C8181309105B3
:101CE00031F012C086EC92E00E94A21711C088EC7D
:101CF00092E00E94A21780917903882349F08AEC30
:101D000092E00E94A21704C082E692E00E94A2170D
:101D100024960FB6F894DEBF0FBECDBFDF91CF91F2
:101D20000895CF93DF93CDB7DEB726970FB6F8941B
:101D3000DEBF0FBECDBF82E090E09A838983A98188
:101D4000BA810E942719BA83A983CF019E838D830C
:101D50008D819E819C838B838B819C8101960E94C7
:101D60004818992726960FB6F894DEBF0FBECDBF50
:101D7000DF91CF910895CF93DF93CDB7DEB726974C
:101D80000FB6F894DEBF0FBECDBF82E090E09A831D
:101D90008983A981BA810E942719BA83A983CF01B7
:101DA0009E838D838D819E819C838B838B819C817F
:101DB0000E944818992726960FB6F894DEBF0FBEEA
:101DC000CDBFDF91CF910895CF93DF93CDB7DEB72D
:101DD00022970FB6F894DEBF0FBECDBF89838981ED
:101DE000882311F481E089838981843010F083E0B5
:101DF00089830E94BB0E8A8380917903882351F0E6
:101E000080ED92E00E94A21789810E94401780E233
:101E10000E94A4168A81482F55278981282F3327AD
:101E2000C901820F931F029702C0559547958A9565
:101E3000E2F7CA0181709070009721F084E40E945B
:101E4000A41603C081E40E94A4168091790388231C
:101E500021F08BED92E00E94A21722960FB6F89423
:101E6000DEBF0FBECDBFDF91CF910895CF93DF933B
:101E7000CDB7DEB722970FB6F894DEBF0FBECDBF49
:101E800089838981882311F481E089838981843061
:101E900010F083E089830E94BB0E8A8380917903CE
:101EA000882359F086EE92E00E94A21789810E9451
:101EB00040178AEF92E00E94A2178A81482F552787
:101EC0008981282F3327C901820F931F019702C0F0
:101ED000559547958A95E2F7CA01817090700097F1
:101EE00029F08CEF92E00E94A21704C08EEF92E0DE
:101EF0000E94A21722960FB6F894DEBF0FBECDBF88
:101F0000DF91CF910895CF93DF93CDB7DEB72297BE
:101F10000FB6F894DEBF0FBECDBF898389818823B9
:101F200011F481E089838981843010F083E0898312
:101F30000E94BB0E8A8380917903882359F080E048
:101F400093E00E94A21789810E9440178AEF92E0D5
:101F50000E94A2178A81482F55278981282F33276D
:101F6000C901820F931F029702C0559547958A9524
:101F7000E2F7CA0183700E94401722960FB6F894C8
:101F8000DEBF0FBECDBFDF91CF910895CF93DF931A
:101F9000CDB7DEB723970FB6F894DEBF0FBECDBF27
:101FA00089838981813019F41092020103C081E094
:101FB0008093020180917903882399F081E293E074
:101FC0000E94A2171A8280910201882311F481E0F5
:101FD0008A838A810E9440178AEF92E00E94A217AA
:101FE0000AC01B8280910201882311F481E08B8357
:101FF0008B810E94401723960FB6F894DEBF0FBE68
:10200000CDBFDF91CF910895CF93DF93CDB7DEB7EA
:1020100023970FB6F894DEBF0FBECDBF89830E9411
:10202000CD0A882329F480910201882309F405C090
:1020300086E393E00E94A21743C08981882311F4AC
:1020400081E089838981843010F083E089838981EC
:1020500084608F708A838A810E94A10B0E94FE1087
:10206000882309F0FBCF0E94910E8A838091790327
:10207000882359F08AE393E00E94A21789810E9485
:1020800040178AEF92E00E94A21782E08B838B8137
:102090008823B4F08A81282F33279B8183E098021C
:1020A000C001112402C0359527958A95E2F7C90130
:1020B0008770805D0E94A4168B8181508B83E7CF4F
:1020C00023960FB6F894DEBF0FBECDBFDF91CF9140
:1020D0000895CF93DF93CDB7DEB728970FB6F89466
:1020E000DEBF0FBECDBF89830E94CD0A882329F4AD
:1020F00080910201882309F405C082E593E00E94E3
:10210000A21773C08981882311F481E089838981B2
:10211000843010F083E08983898184608F708A83A2
:102120008A810E94A10B0E94FE10882309F0FBCF38
:102130000E94910E8A8380917903882359F08AE363
:1021400093E00E94A21789810E9440178AEF92E0D3
:102150000E94A2178A8188234CF48BE20E94A41665
:1021600080E89A81981B892F8A8307C08DE20E949C
:10217000A4168FE79A81891B8A839A8184E6989FA7
:10218000C001112498878F838F819885992334F417
:102190008F81988581589F4F98878F838F819885ED
:1021A000880F892F881F990B9C838B838B819C813F
:1021B0002AE030E0B9010E94E918CB019E838D83AB
:1021C0008D810E9440172D813E81C901880F991F82
:1021D000880F991F880F991F820F931F820F931FDB
:1021E0002B81281B822F0E94401728960FB6F89447
:1021F000DEBF0FBECDBFDF91CF910895CF93DF93A8
:10220000CDB7DEB721970FB6F894DEBF0FBECDBFB6
:102210000E94BB0E89838981881F8827881F992780
:1022200021960FB6F894DEBF0FBECDBFDF91CF91E0
:102230000895CF93DF93CDB7DEB726970FB6F89406
:10224000DEBF0FBECDBF80917903882321F086E5E4
:1022500093E00E94A21780E090E09A838983A9818D
:10226000BA810E942719BA83A983CF019E838D83E7
:102270008D819E819C838B838B819C810E946417BE
:1022800026960FB6F894DEBF0FBECDBFDF91CF917B
:102290000895CF93DF93CDB7DEB726970FB6F894A6
:1022A000DEBF0FBECDBF0E94F317982F88279A83F9
:1022B00089830E94F3179C0122953295307F322743
:1022C000207F322789819A81822B932B9A8389835D
:1022D0000E94F3179C0189819A81822B932B9A8308
:1022E000898380E090E09C838B8389819A819E839F
:1022F0008D83AB81BC818D819E810C010E94381938
:10230000BC83AB8382E090E09E838D8389819A8138
:1023100040979C838B83AD81BE818B819C810C0116
:102320000E943819BE83AD830E94191126960FB6FC
:10233000F894DEBF0FBECDBFDF91CF910895CF934C
:10234000DF93CDB7DEB70E94F317809379038091B6
:102350007903882329F08CE693E00E94A21703C03A
:1023600086E40E94A416DF91CF910895CF93DF9366
:10237000CDB7DEB728970FB6F894DEBF0FBECDBF3E
:102380008CE890E09A83898389819A819D838C83EC
:10239000FE013496808191819C0101969183808316
:1023A0003F832E83EE81FF818491888788858B838C
:1023B000882321F08B810E94A416EACF28960FB6BD
:1023C000F894DEBF0FBECDBFDF91CF910895CF93BC
:1023D000DF93CDB7DEB725970FB6F894DEBF0FBEFB
:1023E000CDBF84E090E09A8389830E94F3178B83AA
:1023F000A981BA818B81082E0E942C19BA83A983E6
:1024000084E090E09A838983A981BA810E941F1990
:10241000802DBA83A9838B838B8199279D838C839D
:102420008C810E94D51425960FB6F894DEBF0FBE9E
:10243000CDBFDF91CF910895C8EFD0E1DEBFCDBF12
:102440000E941D1884E090E09A838983A981BA8153
:102450000E941F19802DBA83A9838D838D819927AE
:102460009C838B838B810E94D5140E94C316282FD6
:1024700033273F832E838E819F818436910509F413
:102480001FC12E813F81253631050CF073C08E812E
:102490009F818F34910509F4EFC02E813F81203553
:1024A0003105BCF58E819F818434910509F4DDC02E
:1024B0002E813F81253431059CF48E819F818234A9
:1024C000910509F471C12E813F81233431050CF04F
:1024D000C9C08E819F818134910509F4EBC06AC126
:1024E0002E813F812C34310509F40DC18E819F81ED
:1024F0008D3491053CF42E813F812934310509F456
:102500004DC158C18E819F818E34910509F4A7C0B9
:1025100051C12E813F812635310509F4B0C08E812D
:102520009F81873591059CF42E813F8124353105AB
:1025300009F4C3C08E819F81853591050CF031C1AE
:102540002E813F812235310509F486C033C18E8149
:102550009F818236910509F4B8C02E813F812336D0
:1025600031050CF0C6C08E819F818136910509F43A
:1025700096C020C12E813F812237310509F497C0D2
:102580008E819F8183379105BCF52E813F8129364D
:10259000310509F400C18E819F818A3691059CF432
:1025A0002E813F812736310509F46FC08E819F81CE
:1025B000883691050CF0FBC02E813F81263631050F
:1025C00009F460C0F7C08E819F818D36910509F4B2
:1025D00086C02E813F812E3631053CF48E819F814D
:1025E0008B36910509F494C0E5C02E813F812037D8
:1025F000310509F46FC0DEC08E819F818637910559
:1026000009F495C02E813F81273731056CF48E8106
:102610009F818437910509F447C02E813F8125377A
:1026200031050CF061C06AC08E819F8189379105A8
:1026300009F478C02E813F812A37310534F48E8128
:102640009F818837910521F1B5C02E813F812A37BE
:10265000310509F462C0AEC00E946906B6C00E948E
:10266000D306B3C00E94A106B0C0109279030E94A5
:10267000A1060E945907A9C00E949D08A6C00E94F9
:10268000D108A3C00E94A509A0C00E94F1099DC065
:102690000E94F3170E94820A0E94401796C00E946F
:1026A000F3170E94F80A91C00E94200B8EC00E946E
:1026B000860B8BC00E94CB0B88C00E94E10B85C0AB
:1026C0000E94F3170E94B10C80C00E94F3170E9471
:1026D000F00C7BC00E94F3170E94B90D76C00E94D7
:1026E000F3170E94370E71C00E94F3170E945C0D11
:1026F0006CC00E94F3170E94E40E67C00E94F3179B
:102700000E94360F62C00E94F3170E9404105DC041
:102710000E94F3170E94691058C00E94F3170E948C
:10272000C60F53C00E94700C0E9440174EC080918B
:102730007A03882349F080917903882329F08BE775
:1027400093E00E94A21716C080917A03882329F093
:1027500080EA93E00E94A2170DC08091790388233C
:1027600029F085EA93E00E94A21704C087EC93E069
:102770000E94A21780917903882339F18CEC93E0B1
:102780000E94A2178FEC93E00E94A2178DEF93E0B6
:102790000E94A2171AC00E94191117C00E94491165
:1027A00014C00E94E71111C00E949F110EC00E9428
:1027B000B6110BC080917903882321F081E294E067
:1027C0000E94A2178FE30E94A416809179038823A8
:1027D00009F44BCE8CEC93E00E94A21746CE1F92D8
:1027E0000F920FB60F9211248F939F93EF93FF9345
:1027F000CF93DF93CDB7DEB7F89480913204803465
:10280000C8F4809132048F5F8093320480913A043F
:102810009927FC01E358FB4F80912C008083809125
:102820003A048F5F80933A0480913A04803411F423
:1028300010923A047894DF91CF91FF91EF919F919C
:102840008F910F900FBE0F901F9018951F920F92AF
:102850000FB60F9211248F939F93EF93FF93CF9313
:10286000DF93CDB7DEB7F894809135049927FC014A
:10287000E354FB4F808180932C0080913104815080
:1028800080933104809135048F5F8093350480916B
:102890003504803411F4109235048091310488237A
:1028A00029F480912A008F7D80932A007894DF910B
:1028B000CF91FF91EF919F918F910F900FBE0F904D
:1028C0001F9018951F920F920FB60F9211248F939D
:1028D0009F93EF93FF93CF93DF93CDB7DEB7F89439
:1028E000809134048034C8F480913C049927FC0121
:1028F000E35CFB4F80919C008083809134048F5F68
:102900008093340480913C048F5F80933C048091D9
:102910003C04803411F410923C047894DF91CF9100
:10292000FF91EF919F918F910F900FBE0F901F908D
:1029300018951F920F920FB60F9211248F939F93A9
:10294000EF93FF93CF93DF93CDB7DEB7F8948091E9
:1029500037049927FC01E350FB4F808180939C0052
:1029600080913304815080933304809137048F5FCA
:102970008093370480913704803411F41092370427
:1029800080913304882329F480919A008F7D80936D
:102990009A007894DF91CF91FF91EF919F918F9161
:1029A0000F900FBE0F901F901895CF93DF93CDB768
:1029B000DEB729970FB6F894DEBF0FBECDBF89836F
:1029C000F8941092900084E08093290080912A006E
:1029D0008B7F80932A00809195008460809395007E
:1029E000809195008D7F80939500809195008860FF
:1029F00080939500809195008062809395008091EE
:102A0000950080618093950080912A008061809379
:102A10002A0080912A00886080932A0080912A00F1
:102A2000806880932A008981282F33273987288757
:102A3000888599858330910591F1288539852430E1
:102A400031055CF48885998581309105B1F0288540
:102A5000398522303105D1F046C088859985853089
:102A6000910579F128853985253031050CF1888566
:102A700099858630910571F136C080E699E0A0E035
:102A8000B0E08C839D83AE83BF8335C080E895E240
:102A9000A0E0B0E08C839D83AE83BF832CC080E038
:102AA0009BE4A0E0B0E08C839D83AE83BF8323C012
:102AB00080E096E9A0E0B0E08C839D83AE83BF8385
:102AC0001AC080E091EEA0E0B0E08C839D83AE83DD
:102AD000BF8311C080E092ECA1E0B0E08C839D83C5
:102AE000AE83BF8308C080E091EEA0E0B0E08C83AD
:102AF0009D83AE83BF8380E094E9A1E1B0E02C81A7
:102B00003D814E815F81BC01CD010E94FD18DA013B
:102B1000C90101979B838A838A819B81892F992789
:102B2000809398008A818093990080919A008B7F8E
:102B300080939A0080919D00846080939D00809195
:102B40009D008D7F80939D0080919D008860809383
:102B50009D0080919D00806280939D0080919D00EA
:102B6000806180939D0080919A00806180939A009B
:102B700080919A00886080939A0080919A00806882
:102B800080939A00789429960FB6F894DEBF0FBE12
:102B9000CDBFDF91CF910895CF93DF93CDB7DEB74F
:102BA00021970FB6F894DEBF0FBECDBF8983809109
:102BB0003104803408F0FBCFF894809139049927D0
:102BC000FC01E354FB4F89818083809131048F5F46
:102BD00080933104809139048F5F80933904809110
:102BE0003904803411F41092390480912A008062F3
:102BF00080932A00789421960FB6F894DEBF0FBE1A
:102C0000CDBFDF91CF910895CF93DF93CDB7DEB7DE
:102C100021970FB6F894DEBF0FBECDBF8983809198
:102C20003304803408F0FBCFF89480913B0499275B
:102C3000FC01E350FB4F89818083809133048F5FD7
:102C40008093330480913B048F5F80933B04809199
:102C50003B04803411F410923B0480919A0080620E
:102C600080939A00789421960FB6F894DEBF0FBE39
:102C7000CDBFDF91CF910895CF93DF93CDB7DEB76E
:102C800021970FB6F894DEBF0FBECDBF80913204FE
:102C9000882309F4FBCFF894809136049927FC012E
:102CA000E358FB4F80818983809132048150809367
:102CB0003204809136048F5F80933604809136040D
:102CC000803411F4109236047894898199272196E2
:102CD0000FB6F894DEBF0FBECDBFDF91CF91089540
:102CE000CF93DF93CDB7DEB721970FB6F894DEBF51
:102CF0000FBECDBF80913404882309F4FBCFF89434
:102D0000809138049927FC01E35CFB4F8081898323
:102D100080913404815080933404809138048F5F13
:102D20008093380480913804803411F41092380470
:102D300078948981992721960FB6F894DEBF0FBE4B
:102D4000CDBFDF91CF910895CF93DF93CDB7DEB79D
:102D500021970FB6F894DEBF0FBECDBF8983809157
:102D60007A03882321F089810E94041603C0898197
:102D70000E94CC1521960FB6F894DEBF0FBECDBFD2
:102D8000DF91CF910895CF93DF93CDB7DEB7229730
:102D90000FB6F894DEBF0FBECDBF809132048823FA
:102DA00041F010927A030E943C1699279A838983F6
:102DB0000CC080913404882381F381E080937A03EE
:102DC0000E94701699279A83898389819A81229615
:102DD0000FB6F894DEBF0FBECDBFDF91CF9108953F
:102DE000CF93DF93CDB7DEB725970FB6F894DEBF4C
:102DF0000FBECDBF9A83898380E197E29C838B834A
:102E00008B819C81009799F189819A812B813C81EA
:102E1000B9010E94E918CB018D838D81282F3327BA
:102E20008B819C81289FA001299F500D389F500DB8
:102E300011249A0189819A81821B930B9A83898339
:102E40008D810E9440178B819C8157E280319507CC
:102E500019F48EE20E94A4168B819C812AE030E056
:102E6000B9010E94E918CB019C838B83C9CF2596B9
:102E70000FB6F894DEBF0FBECDBFDF91CF9108959E
:102E8000CF93DF93CDB7DEB722970FB6F894DEBFAE
:102E90000FBECDBF898389818F708A838A818A30F2
:102EA00020F48A81805D8A8303C08A81895C8A8359
:102EB0008A810E94A41622960FB6F894DEBF0FBE38
:102EC000CDBFDF91CF910895CF93DF93CDB7DEB71C
:102ED00024970FB6F894DEBF0FBECDBF9A838983C7
:102EE00083E08C838C81882324F18C81992787FD52
:102EF00090959C01220F331F220F331F89819A81E5
:102F0000022E02C0969587950A94E2F78F708B8304
:102F10008B818A3024F48B81805D8B8303C08B810D
:102F2000895C8B838B810E94A4168C8181508C8359
:102F3000D9CF24960FB6F894DEBF0FBECDBFDF9178
:102F4000CF910895CF93DF93CDB7DEB722970FB619
:102F5000F894DEBF0FBECDBF9A838983E981FA81E1
:102F60008081882349F0E981FA8180813196FA8352
:102F7000E9830E94A416F2CF22960FB6F894DEBF22
:102F80000FBECDBFDF91CF910895CF93DF93CDB723
:102F9000DEB722970FB6F894DEBF0FBECDBF898390
:102FA00087E08A838A818823ACF08981282F3327A0
:102FB0008A81992787FD909502C0359527958A9536
:102FC000E2F7C9018170805D0E94A4168A81815058
:102FD0008A83E8CF22960FB6F894DEBF0FBECDBF2E
:102FE000DF91CF910895CF93DF93CDB7DEB72397CD
:102FF0000FB6F894DEBF0FBECDBF0E94C316898303
:103000008981813440F089819927C7978F709070AA
:103010009B838A8307C089819927C0978F7090709E
:103020009B838A838A819B8123960FB6F894DEBFA7
:103030000FBECDBFDF91CF910895CF93DF93CDB772
:10304000DEB78FEF80933A008FE380933400809156
:10305000650088608093650080916400886080933B
:1030600064008091650082608093650080916400B7
:103070008260809364008091650081608093650028
:1030800080916400816080936400DF91CF91089506
:10309000CF93DF93CDB7DEB723970FB6F894DEBF9B
:1030A0000FBECDBF9A838983898180933B0089813C
:1030B0009A81892F99278093350010926100809121
:1030C00065008D7F80936500000000000000000017
:1030D00000000000809120008B8380916500826059
:1030E000809365008B81992723960FB6F894DEBFF5
:1030F0000FBECDBFDF91CF910895CF93DF93CDB7B2
:10310000DEB723970FB6F894DEBF0FBECDBF9A830C
:1031100089836B83898180933B0089819A81892F80
:103120009927809335008B81809362008FEF809385
:103130006100809165008E7F809365000000000033
:103140000000000000000000809165008160809315
:1031500065001092610023960FB6F894DEBF0FBE93
:10316000CDBFDF91CF910895CF93DF93CDB7DEB779
:1031700023970FB6F894DEBF0FBECDBF9A83898325
:10318000898180933B0089819A81892F9927809337
:1031900035001092610080916500877F8093650003
:1031A00000000000000000000000000080912000EE
:1031B0008B83809165008860809365008B8199275F
:1031C00023960FB6F894DEBF0FBECDBFDF91CF912F
:1031D0000895AA1BBB1B51E107C0AA1FBB1FA6175E
:1031E000B70710F0A61BB70B881F991F5A95A9F7B0
:1031F00080959095BC01CD010895A1E21A2EAA1BDD
:10320000BB1BFD010DC0AA1FBB1FEE1FFF1FA21796
:10321000B307E407F50720F0A21BB30BE40BF50B93
:10322000661F771F881F991F1A9469F7609570951C
:10323000809590959B01AC01BD01CF010895E19966
:10324000FECFBFBBAEBBE09A11960DB20895F7DF7B
:10325000E02DF5DFF02D0895E199FECFBFBBAEBBA9
:103260000DBA11960FB6F894E29AE19A0FBE08953E
:0A327000F3DF012CF1DF11240895B3
:10327A0001010143617264204E756D626572203AE4
:10328A0020002C204368616E6E656C204E756D625D
:10329A006572203A20002069732073656C65637437
:1032AA00656420262062756666657220706F696E95
:1032BA00746572206973200068656C6420617420EB
:1032CA003020006672656520746F20696E637265CE
:1032DA006D656E7420004641494C4544007A7A7AFD
:1032EA007A00000005000200010000000000000052
:1032FA0000000000000000000000050002000100BC
:10330A00000043204461746120436F75706C696EDC
:10331A0067002073616D706C696E67203A20002027
:10332A006973207573696E672074696D656261736C
:10333A006520002062756666657220706F696E741A
:10334A00657220697320307800416C6C2054726970
:10335A006767657220556E6974732041726D656482
:10336A002E00416C6C205472696767657220556E35
:10337A00697473205472696767657265642E0054B4
:10338A0072696767657220556E69742000205072F1
:10339A00652D747269676765722073616D706C65FB
:1033AA0073206973200039320054696D65204261C7
:1033BA00736520556E6974200020627566666572B1
:1033CA002073697A65206973200041003200380051
:1033DA0034005800206973207573696E672074720F
:1033EA00696767657220756E697420002073616D64
:1033FA00706C696E6720706572696F6420697320EA
:10340A002875732920003530003230003130003001
:10341A0035003032003031005858002074696D652B
:10342A002062617365206D756C7469706C69657270
:10343A0020697320200030003100207831303000BC
:10344A0054726967676572203A20004320436F759A
:10345A00706C696E6700536C6F7065206F6E2054D4
:10346A00726967676572203A2000200052004600A0
:10347A00536C6F706520616E6420436F75706C6960
:10348A006E67206F6E2054726967676572203A20F2
:10349A0000456E61626C65206B2D7265706F727487
:1034AA00696E673A2000303030005468726573687C
:1034BA006F6C64206F6E2054726967676572203A78
:1034CA0020002B303000492F4F20424153452041E4
:1034DA00444452455353203A20307800566572626C
:1034EA006F7365203A204F4E0001014461746120D8
:1034FA00426F782056332E352050726573656E748C
:10350A00206F6E2053657269616C20506F7274006F
:10351A0053332E35004461746120426F782056334C
:10352A002E352050726573656E74206F6E20555368
:10353A004220506F72740055332E35000D0A004C2C
:10354A00756B652048696C6C796172643A206861B0
:10355A0072647761726520616E64206669726D7744
:10356A006172652C20323030362E0D0A0050657497
:10357A006572204A61636F62733A206669726D7779
:10358A006172652C204A616E20323030372E0D0A66
:10359A00005768617420746865206678636B000060
:00000001FF
